{
  "contractName": "Certification",
  "abi": [
    {
      "anonymous": false,
      "inputs": [
        {
          "indexed": false,
          "internalType": "string",
          "name": "certid",
          "type": "string"
        }
      ],
      "name": "CertificateRevoked",
      "type": "event"
    },
    {
      "anonymous": false,
      "inputs": [
        {
          "indexed": false,
          "internalType": "string",
          "name": "certid",
          "type": "string"
        }
      ],
      "name": "certificateGenerated",
      "type": "event"
    },
    {
      "inputs": [
        {
          "internalType": "string",
          "name": "",
          "type": "string"
        }
      ],
      "name": "certificates",
      "outputs": [
        {
          "internalType": "string",
          "name": "name",
          "type": "string"
        },
        {
          "internalType": "string",
          "name": "usn",
          "type": "string"
        },
        {
          "internalType": "string",
          "name": "sem",
          "type": "string"
        },
        {
          "internalType": "string",
          "name": "branch",
          "type": "string"
        },
        {
          "internalType": "string",
          "name": "course",
          "type": "string"
        },
        {
          "internalType": "string",
          "name": "ipfshash",
          "type": "string"
        },
        {
          "internalType": "bool",
          "name": "isRevoked",
          "type": "bool"
        }
      ],
      "stateMutability": "view",
      "type": "function",
      "constant": true
    },
    {
      "inputs": [
        {
          "internalType": "string",
          "name": "_certid",
          "type": "string"
        },
        {
          "internalType": "string",
          "name": "_name",
          "type": "string"
        },
        {
          "internalType": "string",
          "name": "_usn",
          "type": "string"
        },
        {
          "internalType": "string",
          "name": "_sem",
          "type": "string"
        },
        {
          "internalType": "string",
          "name": "_branch",
          "type": "string"
        },
        {
          "internalType": "string",
          "name": "_course",
          "type": "string"
        },
        {
          "internalType": "string",
          "name": "_ipfshash",
          "type": "string"
        }
      ],
      "name": "generateCertificate",
      "outputs": [],
      "stateMutability": "nonpayable",
      "type": "function"
    },
    {
      "inputs": [
        {
          "internalType": "string",
          "name": "_certid",
          "type": "string"
        }
      ],
      "name": "revokeCertificate",
      "outputs": [],
      "stateMutability": "nonpayable",
      "type": "function"
    },
    {
      "inputs": [
        {
          "internalType": "string",
          "name": "_certid",
          "type": "string"
        }
      ],
      "name": "getCertificate",
      "outputs": [
        {
          "internalType": "string",
          "name": "_usn",
          "type": "string"
        },
        {
          "internalType": "string",
          "name": "_name",
          "type": "string"
        },
        {
          "internalType": "string",
          "name": "_sem",
          "type": "string"
        },
        {
          "internalType": "string",
          "name": "_course",
          "type": "string"
        },
        {
          "internalType": "string",
          "name": "_branch",
          "type": "string"
        },
        {
          "internalType": "string",
          "name": "_ipfshash",
          "type": "string"
        },
        {
          "internalType": "bool",
          "name": "_isRevoked",
          "type": "bool"
        }
      ],
      "stateMutability": "view",
      "type": "function",
      "constant": true
    },
    {
      "inputs": [
        {
          "internalType": "string",
          "name": "_certid",
          "type": "string"
        }
      ],
      "name": "isVerified",
      "outputs": [
        {
          "internalType": "bool",
          "name": "",
          "type": "bool"
        }
      ],
      "stateMutability": "view",
      "type": "function",
      "constant": true
    }
  ],
  "bytecode": "0x608060405234801561001057600080fd5b50611088806100206000396000f3fe608060405234801561001057600080fd5b50600436106100575760003560e01c8063142e15421461005c578063234c76d5146100715780634e435daa146100995780638f2b91ea146100ac578063ed0f2e75146100d2575b600080fd5b61006f61006a366004610da2565b6100e5565b005b61008461007f366004610da2565b6101d5565b60405190151581526020015b60405180910390f35b61006f6100a7366004610ddf565b61023a565b6100bf6100ba366004610da2565b610422565b6040516100909796959493929190610f56565b6100bf6100e0366004610da2565b61079a565b6000816040516100f59190610fe2565b9081526020016040518091039020600501805461011190610ffe565b90506000036101675760405162461bcd60e51b815260206004820152601a60248201527f436572746966696361746520646f6573206e6f7420657869737400000000000060448201526064015b60405180910390fd5b60016000826040516101799190610fe2565b908152604051908190036020018120600601805492151560ff19909316929092179091557f266095b5af7e2323760fef151f1d78896740cd2cc1b73a6357ff9e4c3fdae740906101ca908390611038565b60405180910390a150565b600080826040516101e69190610fe2565b9081526020016040518091039020600501805461020290610ffe565b1580159150610234575060008260405161021c9190610fe2565b9081526040519081900360200190206006015460ff16155b92915050565b60008760405161024a9190610fe2565b9081526020016040518091039020600501805461026690610ffe565b1590506102c65760405162461bcd60e51b815260206004820152602860248201527f63657274696669636174652077697468207468697320696420616c726561647960448201526701032bc34b9ba39960c51b606482015260840161015e565b60006040518060e00160405280888152602001878152602001868152602001858152602001848152602001838152602001600015158152509050806000896040516103119190610fe2565b9081526020016040518091039020600082015181600001908051906020019061033b929190610c66565b5060208281015180516103549260018501920190610c66565b5060408201518051610370916002840191602090910190610c66565b506060820151805161038c916003840191602090910190610c66565b50608082015180516103a8916004840191602090910190610c66565b5060a082015180516103c4916005840191602090910190610c66565b5060c091909101516006909101805460ff19169115159190911790556040517f267fae70dc2912ede5096795f49d41fac472461a02e4f8703eceee0e785bbd1d90610410908a90611038565b60405180910390a15050505050505050565b805160208183018101805160008252928201919093012091528054819061044890610ffe565b80601f016020809104026020016040519081016040528092919081815260200182805461047490610ffe565b80156104c15780601f10610496576101008083540402835291602001916104c1565b820191906000526020600020905b8154815290600101906020018083116104a457829003601f168201915b5050505050908060010180546104d690610ffe565b80601f016020809104026020016040519081016040528092919081815260200182805461050290610ffe565b801561054f5780601f106105245761010080835404028352916020019161054f565b820191906000526020600020905b81548152906001019060200180831161053257829003601f168201915b50505050509080600201805461056490610ffe565b80601f016020809104026020016040519081016040528092919081815260200182805461059090610ffe565b80156105dd5780601f106105b2576101008083540402835291602001916105dd565b820191906000526020600020905b8154815290600101906020018083116105c057829003601f168201915b5050505050908060030180546105f290610ffe565b80601f016020809104026020016040519081016040528092919081815260200182805461061e90610ffe565b801561066b5780601f106106405761010080835404028352916020019161066b565b820191906000526020600020905b81548152906001019060200180831161064e57829003601f168201915b50505050509080600401805461068090610ffe565b80601f01602080910402602001604051908101604052809291908181526020018280546106ac90610ffe565b80156106f95780601f106106ce576101008083540402835291602001916106f9565b820191906000526020600020905b8154815290600101906020018083116106dc57829003601f168201915b50505050509080600501805461070e90610ffe565b80601f016020809104026020016040519081016040528092919081815260200182805461073a90610ffe565b80156107875780601f1061075c57610100808354040283529160200191610787565b820191906000526020600020905b81548152906001019060200180831161076a57829003601f168201915b5050506006909301549192505060ff1687565b6060806060806060806000806000896040516107b69190610fe2565b90815260200160405180910390206040518060e00160405290816000820180546107df90610ffe565b80601f016020809104026020016040519081016040528092919081815260200182805461080b90610ffe565b80156108585780601f1061082d57610100808354040283529160200191610858565b820191906000526020600020905b81548152906001019060200180831161083b57829003601f168201915b5050505050815260200160018201805461087190610ffe565b80601f016020809104026020016040519081016040528092919081815260200182805461089d90610ffe565b80156108ea5780601f106108bf576101008083540402835291602001916108ea565b820191906000526020600020905b8154815290600101906020018083116108cd57829003601f168201915b5050505050815260200160028201805461090390610ffe565b80601f016020809104026020016040519081016040528092919081815260200182805461092f90610ffe565b801561097c5780601f106109515761010080835404028352916020019161097c565b820191906000526020600020905b81548152906001019060200180831161095f57829003601f168201915b5050505050815260200160038201805461099590610ffe565b80601f01602080910402602001604051908101604052809291908181526020018280546109c190610ffe565b8015610a0e5780601f106109e357610100808354040283529160200191610a0e565b820191906000526020600020905b8154815290600101906020018083116109f157829003601f168201915b50505050508152602001600482018054610a2790610ffe565b80601f0160208091040260200160405190810160405280929190818152602001828054610a5390610ffe565b8015610aa05780601f10610a7557610100808354040283529160200191610aa0565b820191906000526020600020905b815481529060010190602001808311610a8357829003601f168201915b50505050508152602001600582018054610ab990610ffe565b80601f0160208091040260200160405190810160405280929190818152602001828054610ae590610ffe565b8015610b325780601f10610b0757610100808354040283529160200191610b32565b820191906000526020600020905b815481529060010190602001808311610b1557829003601f168201915b50505091835250506006919091015460ff161515602090910152604051909150600090610b60908b90610fe2565b90815260200160405180910390206005018054610b7c90610ffe565b9050600003610bdd5760405162461bcd60e51b815260206004820152602760248201527f43657274696669636174652077697468207468697320494420646f6573206e6f6044820152661d08195e1a5cdd60ca1b606482015260840161015e565b8060c0015115610c2f5760405162461bcd60e51b815260206004820152601c60248201527f436572746966696361746520686173206265656e207265766f6b656400000000604482015260640161015e565b6020810151815160408301516060840151608085015160a086015160c090960151949e939d50919b50995097509195509350915050565b828054610c7290610ffe565b90600052602060002090601f016020900481019282610c945760008555610cda565b82601f10610cad57805160ff1916838001178555610cda565b82800160010185558215610cda579182015b82811115610cda578251825591602001919060010190610cbf565b50610ce6929150610cea565b5090565b5b80821115610ce65760008155600101610ceb565b634e487b7160e01b600052604160045260246000fd5b600082601f830112610d2657600080fd5b813567ffffffffffffffff80821115610d4157610d41610cff565b604051601f8301601f19908116603f01168101908282118183101715610d6957610d69610cff565b81604052838152866020858801011115610d8257600080fd5b836020870160208301376000602085830101528094505050505092915050565b600060208284031215610db457600080fd5b813567ffffffffffffffff811115610dcb57600080fd5b610dd784828501610d15565b949350505050565b600080600080600080600060e0888a031215610dfa57600080fd5b873567ffffffffffffffff80821115610e1257600080fd5b610e1e8b838c01610d15565b985060208a0135915080821115610e3457600080fd5b610e408b838c01610d15565b975060408a0135915080821115610e5657600080fd5b610e628b838c01610d15565b965060608a0135915080821115610e7857600080fd5b610e848b838c01610d15565b955060808a0135915080821115610e9a57600080fd5b610ea68b838c01610d15565b945060a08a0135915080821115610ebc57600080fd5b610ec88b838c01610d15565b935060c08a0135915080821115610ede57600080fd5b50610eeb8a828b01610d15565b91505092959891949750929550565b60005b83811015610f15578181015183820152602001610efd565b83811115610f24576000848401525b50505050565b60008151808452610f42816020860160208601610efa565b601f01601f19169290920160200192915050565b60e081526000610f6960e083018a610f2a565b8281036020840152610f7b818a610f2a565b90508281036040840152610f8f8189610f2a565b90508281036060840152610fa38188610f2a565b90508281036080840152610fb78187610f2a565b905082810360a0840152610fcb8186610f2a565b91505082151560c083015298975050505050505050565b60008251610ff4818460208701610efa565b9190910192915050565b600181811c9082168061101257607f821691505b60208210810361103257634e487b7160e01b600052602260045260246000fd5b50919050565b60208152600061104b6020830184610f2a565b939250505056fea26469706673582212209b6041f84beffd50585a89dd0bca399135d05fccd976e49c24c51091b402abac64736f6c634300080d0033",
  "immutableReferences": {},
  "source": "// SPDX-License-Identifier: MIT\r\npragma solidity ^0.8.13;\r\n\r\ncontract Certification {\r\n    struct Certificate{\r\n        string name;\r\n        string usn;\r\n        string sem;\r\n        string branch;\r\n        string course;\r\n        string ipfshash;\r\n        bool isRevoked;\r\n    }\r\n    mapping (string => Certificate) public certificates;\r\n    event certificateGenerated(string certid);\r\n    event CertificateRevoked(string certid);\r\n\r\n    function generateCertificate(\r\n        string memory _certid,\r\n        string memory _name,\r\n        string memory _usn,\r\n        string memory _sem,\r\n        string memory _branch,\r\n        string memory _course,\r\n        string memory _ipfshash\r\n    ) public {\r\n      require(bytes(certificates[_certid].ipfshash).length == 0, \r\n      \"certificate with this id already exists \");\r\n      Certificate memory cert = Certificate({\r\n        usn : _usn,\r\n        name : _name,\r\n        sem : _sem,\r\n        branch : _branch,\r\n        course : _course,\r\n        ipfshash : _ipfshash,\r\n        isRevoked: false\r\n\r\n      });\r\n\r\n      certificates[_certid] = cert;\r\n\r\n      emit certificateGenerated(_certid);\r\n    }\r\n\r\n    function revokeCertificate(string memory _certid) public {\r\n        require(bytes(certificates[_certid].ipfshash).length != 0, \"Certificate does not exist\");\r\n        certificates[_certid].isRevoked = true;\r\n        emit CertificateRevoked(_certid);\r\n    }\r\n\r\n\r\n    function getCertificate(string memory _certid) public view \r\n        returns (\r\n            string memory _usn,\r\n            string memory _name,\r\n            string memory _sem,\r\n            string memory _course,\r\n            string memory _branch,\r\n            string memory _ipfshash,\r\n            bool _isRevoked\r\n        ) {\r\n        Certificate memory cert = certificates[_certid];\r\n        require(\r\n            bytes(certificates[_certid].ipfshash).length != 0,\r\n            \"Certificate with this ID does not exist\"\r\n        );\r\n        require(!cert.isRevoked, \"Certificate has been revoked\");\r\n        return (cert.usn, cert.name, cert.sem, cert.branch, cert.course, cert.ipfshash, cert.isRevoked);\r\n    }\r\n\r\n\r\n    function isVerified(\r\n        string memory _certid\r\n    ) public view returns (bool) {\r\n        return bytes(certificates[_certid].ipfshash).length != 0 && !certificates[_certid].isRevoked;\r\n    }\r\n\r\n}\r\n",
  "sourcePath": "G:\\proj\\C3RTiFY\\contracts\\certification.sol",
  "compiler": {
    "name": "solc",
    "version": "0.8.13+commit.abaa5c0e.Emscripten.clang"
  },
  "schemaVersion": "3.4.16",
  "updatedAt": "2024-09-08T17:38:38.206Z",
  "networkType": "ethereum",
  "devdoc": {
    "kind": "dev",
    "methods": {},
    "version": 1
  },
  "userdoc": {
    "kind": "user",
    "methods": {},
    "version": 1
  }
}